S01100004D345F44435F4D56432E7372656367
S315000000009871FE1F9D6E000005690000996E000044
S31500000010996E0000996E0000996E000000000000C5
S31500000020000000000000000000000000996E0000C3
S31500000030996E0000000000008D8F000041900000C6
S31500000040513C0000050A0000FFFFFFFFFFFFFFFF16
S31500000050FFFFFFFFFFFFFFFFFFFFFFFFFFFFFFFFAA
S31500000060FFFFFFFFFFFFFFFFFFFFFFFFFFFFFFFF9A
S31500000070FFFFFFFFFFFFFFFFFFFFFFFFFFFFFFFF8A
S31500000080FFFFFFFFFFFFFFFFFFFFFFFFFFFFFFFF7A
S31500000400FFFFFFFFFFFDFFFFFFFFFFFFFFFFFFFFF8
S31500000410FFFFFFFFFFFFFFFFFFFFFFFFFFFFFFFFE6
S31500000420FFFFFFFFFFFFFFFFFFFFFFFFFFFFFFFFD6
S31500000430FFFFFFFFFFFFFFFFFFFFFFFFFFFFFFFFC6
S31500000440FFFFFFFFFFFFFFFFFFFFFFFFFFFFFFFFB6
S31500000450FFFFFFFFFFFFFFFFFFFFFFFFFFFFFFFFA6
S31500000460FFFFFFFFFFFFFFFFFFFFFFFFFFFFFFFF96
S31500000470FFFFFFFFFFFFFFFFFFFFFFFFFFFFFFFF86
S31500000480FFFFFFFFFFFFFFFFFFFFFFFFFFFFFFFF76
S31500000490FFFFFFFFFFFFFFFFFFFFFFFFFFFFFFFF66
S315000004A0FFFFFFFFFFFFFFFFFFFFFFFFFFFFFFFF56
S315000004B0FFFFFFFFFFFFFFFFFFFFFFFFFFFFFFFF46
S315000004C0FFFFFFFFFFFFFFFFFFFFFFFFFFFFFFFF36
S315000004D0FFFFFFFFFFFFFFFFFFFFFFFFFFFFFFFF26
S315000004E0FFFFFFFFFFFFFFFFFFFFFFFFFFFFFFFF16
S315000004F0FFFFFFFFFFFFFFFFFFFFFFFFFFFFFFFF06
S31500000500184AFE1FFC1C2B30FC01FE1F6100331035
S3150000051020000000200001002F0000002F00010035
S315000005200C00010011000000300000003000010046
S31500000530240000002400010024000200240003001F
S31500000540240004002400050013000000170000002A
S315000005502300000021000000210001000700000028
S31500000560070001000700020007000300070004005F
S31500000570070005000700060007000700120000003C
S3150000058044000000080000000B00000041000000CD
S31500000590400000004000010004000000430000008D
S315000005A02B0000002B000A002B000B002B000C0078
S315000005B02B000D002B0001002B0002002B00030076
S315000005C02B0004002B0005002B0006002B00070063
S315000005D02B0008002B0009000600000006000A0098
S315000005E006000B0006000C0006000D0006000E00BB
S315000005F006000F00060001000600020006000300C8
S3150000060006000400060005000600060006000700B6
S31500000610060008000600090015000000150001008C
S3150000062015000200310000002A000000450000000D
S315000006301000000003010000030000000300010099
S315000006400F0000000D0000002D0000004200000019
S315000006502C0000002C0001002C0002002C000300DE
S3150000066032000000280000001800000014000000FE
S31500000670140001001400020014000300140004001A
S3150000068014000500140006001400070014000800FA
S3150000069014000900340000003400010016000000B8
S315000006A0160001003500000036000000360001008B
S315000006B02200000033000000330100002900000082
S315000006C010B5054C237833B9044B13B10448AFF386
S315000006D000800123237010BD6C01FE1F0000000086
S315000006E0D8C80000084B10B51BB108480849AFF33D
S315000006F000800848036803B910BD074B002BFBD0E8
S31500000700BDE81040184700BF00000000D8C8000030
S315000007107001FE1FC400FE1F0000000038B1062253
S315000007200123027082704370C3700020704701205D
S31500000730704700BF58B151B12DE9F04F3A4C0568EA
S31500000740A54285B005D0072005B0BDE8F08F012091
S315000007507047D0F8884074B1164600F13802044656
S315000007600F4610461946019207F070F828B114207A
S3150000077005B0BDE8F08F6420E6E7D4F88C50002D74
S3150000078049D0D4F89010B54228BF354621442A46B0
S315000007909431384609F064FCD4F88C20D4F89030B3
S315000007A0521B2B44C4F88C20C4F89030C5EB060BC2
S315000007B0BBF1000F29D006F03F0A04F194084FF070
S315000007C00009BAF1000F414603AB0CBF3246802246
S315000007D0D4F88800CDF80C900AF0BEF8CBEB0603EF
S315000007E041460028C7D1039DF8182A46002DC2D0DD
S315000007F05D4512D9CBEB05051846C4F88C50384434
S31500000800C4F890B05A4609F02BFC019807F04AF854
S315000008100028ACD198E7B346CAE709F021FCBBEB48
S31500000820050BCED1F1E700BF4D43585558B338B547
S315000008300268164B9A4214D0D0F88820044692B12A
S31500000840201D13490122342306F092FF04F13800DB
S3150000085010490122342306F08BFF0C4B2360002045
S3150000086038BD082038BD00F16C050B4928461C230D
S3150000087007F0F0F828464FF47A7107F055F900288A
S31500000880DED0142038BD0120704700BF4D435855B7
S31500000890DCBB0000F0BB000004BC000038B110B5A2
S315000008A00446043006F0BCFF18B1642010BD0120D8
S315000008B0704704F1380006F0B3FF0028F5D104F1C3
S315000008C06C0007F01BF90028EFD110BDB0B170B570
S315000008D0154B05689D4201D0072070BD02290446CC
S315000008E015460DD0342000FB01400430114606F0B9
S315000008F0ADFF002814BF1420002070BD01207047F2
S31500000900061D3046114606F0A1FF08B1142070BD41
S3150000091004F13800294606F099FF0028F7D0304642
S3150000092006F0C0FFF2E700BF4D43585580B1154BA6
S3150000093002689A4201D00720704770B504460D46FA
S3150000094041B1022913D00139012919D9002070BDFE
S3150000095001207047043006F0A5FF064628460EB172
S31500000960642070BD002814BF6420002070BD0430D0
S3150000097006F098FF064604F1380006F093FFEEE70E
S315000009800026F8E74D43585558B151B12DE9F041CD
S315000009901B4C0568A54282B005D0072002B0BDE811
S315000009A0F08101207047D0F88840CCB1071D04467D
S315000009B00D4638461946164606F048FF18B114206B
S315000009C002B0BDE8F0810DF10808324648F8040D82
S315000009D02946D4F8880043460AF02EF8024608B1A4
S315000009E06420DBE7D4F88800294643460AF024F859
S315000009F00028F5D1384606F055FF0028DFD1CDE7AF
S31500000A004D43585510B5012007F0BCF9EFF30380AC
S31500000A10103840B206F018F9124B1B685C698CB1AD
S31500000A201B691149D3F894208A4218BF002004D1CB
S31500000A300FE0D3F894208A420CD00130A04203F193
S31500000A40AC03F6D101F078F90120BDE8104007F0BB
S31500000A5097B9002001F008FF0120BDE8104007F01B
S31500000A608FB900BF8451FE1F00000940F8B50F463C
S31500000A7030210446154601F0C7FA30214FF4E062F2
S31500000A800646204601F0B8FA20463A2101F0BCFAA3
S31500000A90012DBB680FD001229A4020EA02022046AF
S31500000AA092B23A2101F0BAFA2046B2B23021BDE83C
S31500000AB0F84001F0B3BA9D4040EA0502EFE700BFF7
S31500000AC0F8B50F4630210446154601F09DFA30214F
S31500000AD04FF4E0620646204601F08EFA20463821A1
S31500000AE001F092FA012DBB680FD001229A4020EA4C
S31500000AF00202204692B2382101F090FA2046B2B2A4
S31500000B003021BDE8F84001F089BA9D4040EA05026F
S31500000B10EFE700BF38B505460C4600F063FB831EC1
S31500000B20032B03D8DFE803F0150E0E0D28462146E9
S31500000B30002200F015F8284621460022FFF796FF0E
S31500000B40FF2038BD28462146002200F009F8002083
S31500000B5038BD28462146012200F002F8002038BDA3
S31500000B60F8B50F4630210446154601F04DFA3021FE
S31500000B704FF4E0620646204601F03EFA2046362152
S31500000B8001F042FA012DBB680FD001229A4020EAFB
S31500000B900202204692B2362101F040FA2046B2B255
S31500000BA03021BDE8F84001F039BA9D4040EA05021F
S31500000BB0EFE700BFE9B138B5CB68012B0C46054617
S31500000BC00DD9022B17D0284621460022FFF7C8FF71
S31500000BD0284621460022FFF749FFFF2038BD00F0D6
S31500000BE091FD831E032BEED8DFE803F014080802FC
S31500000BF038BDFF20704700F0F9FCF2E72846214691
S31500000C000022FFF7ADFF284621460122FFF72EFFFF
S31500000C10002038BDA36833B1284621460122FFF7DC
S31500000C209FFF002038BD284621460122FFF71EFF00
S31500000C30F2E700BFCB68012B70B50C4605462FD0F6
S31500000C401ED3022B0BD004240021284601F0DCF928
S31500000C502846042101F0D8F9013CF5D170BD2021C8
S31500000C60164601F0D1F9A26820F4426020F00F0088
S31500000C703243024392B22846202101F0CFF9E2E73F
S31500000C80282101F0C1F9A36820F4406020F00F008C
S31500000C9040EA030292B22846282101F0BFF9D2E7C2
S31500000CA02C2101F0B1F9A36820F4406020F00F0078
S31500000CB040EA030292B228462C2101F0AFF9C2E7BE
S31500000CC038B58B680C463BB95C2101F09DF9C3052C
S31500000CD010D54FF4807038BD054664210F2201F00F
S31500000CE08BF928466421228901F098F928465C216F
S31500000CF001F08AF9A36AD86938BD00BF2DE9F84F1B
S31500000D004D692C2325F0800503FB050304465A682C
S31500000D10D60702D51420BDE8F88F42F0010203F190
S31500000D2004085A60C1F80880D9628A6902F0030291
S31500000D30022A0E461FD0032A04D0002A79D0FF20AB
S31500000D40BDE8F88F00F5E87A062720466421BAB296
S31500000D5001F064F9204668215AF8049F01F054F91D
S31500000D60C0F3813050EA0900A7F1020376D00137BB
S31500000D700A2FEAD1E3E7174600F5DE7A4FF00109BC
S31500000D80204664211FFA89F201F048F920466821BD
S31500000D905AF804BF01F038F9C0F3813050EA0B036A
S31500000DA041D12C2303FB054308214FEAC902CAF8A7
S31500000DB000504FF4804799625A622C2303FB054387
S31500000DC00833C3F804907269120644D401229A606B
S31500000DD07369414613F0800F204614BF4FF0100987
S31500000DE04FF0000900F094F8EFF3108872B62C2348
S31500000DF003FB05452046AA89642101F00FF97369B2
S31500000E0003F00F0242F080023A4349EA020220460A
S31500000E10682101F003F92046B28B6C2101F0FEF83F
S31500000E2088F3108810E0062F89D0013709F10109EF
S31500000E30A6E75A62C969DA608909022799621F61C1
S31500000E40B28B5E2101F0EAF82046314600F07CF8CC
S31500000E500020BDE8F88F00229A60B9E72C2202FB39
S31500000E60054204EB8701B946C1F8BC514FF400476F
S31500000E7053629062A1E700BFF8B58C6864212289AD
S31500000E80054601F0CBF8A16800293ED001F16E03BA
S31500000E9005EB83030026373149005E60324628465B
S31500000EA001F0B6F8A368012707FA03F292B22846C2
S31500000EB04A2101F0A1F8A36807FA03F292B2284684
S31500000EC0462101F099F8A36807FA03F292B2284680
S31500000ED0482101F091F8284621463246FFF740FEA8
S31500000EE0284621463246FFF7C1FD284621463246AE
S31500000EF0FFF7E6FD284622214FF4804201F08EF8E6
S31500000F0028466821228901F089F800202060F8BD72
S31500000F1038B58D68044655B96021032201F06CF896
S31500000F202046602101F070F88206F9D438BD3735C5
S31500000F306D002946032201F05FF82046294601F09C
S31500000F4063F88306F9D438BD00294AD038B58D68D0
S31500000F50A9680446D1B96021032201F04DF8204664
S31500000F6060214FF4807201F053F8204620210F22B1
S31500000F7001F054F8204622214FF4804201F048F84F
S31500000F802B6823F004032B60002038BD373149005D
S31500000F90032201F031F8A9683731490020464FF4A1
S31500000FA0807201F035F82046282101F02DF8AB6853
S31500000FB000F00F00984220461BD02C2101F024F8A7
S31500000FC0AB6800F00F00984220460CD0202101F0BB
S31500000FD01BF84FF6F0732A8903401A432046202156
S31500000FE0C6E7142070472E214FF4804201F010F816
S31500000FF0C6E72A214FF4804201F00AF8C0E700BF95
S3150000100099B110B58C68A16851B1373149000222F7
S3150000101000F0FEFF236843F004032360002010BDA8
S315000010206021022200F0F4FFF4E71420704700BFAD
S315000010302C2303FB01014868C3074CBFC0F38000A3
S31500001040FF20704738B50C460546FFF7F3FDE36809
S31500001050012B0FD009D3022B05D12846222100F0FF
S31500001060D3FF830400D4FF2038BD28462A2100F090
S31500001070CBFFF6E728462E2100F0C6FFF1E700BFBA
S315000010804368CBB110B4C268042A83B015D00A886D
S31500001090002B92B201920CDD036801A9002211F81F
S315000010A0014B1C7090E81800013201339442036032
S315000010B0F5DC03B05DF8044B70470A680192002B1B
S315000010C0F7DD036801A9002211F8014B1C7090E8B6
S315000010D0180001320133A2420360F5DB03B05DF86C
S315000010E0044BE9E7F8B515460A68D2070C460646EA
S315000010F028D44A685708A2EB47024FF0020E194659
S315000011006260A7604FF48062C4F80CE000F080FFD4
S31500001110D6F8E421174BA6689A4208BF02355EB19D
S31500001120206833460246298822F8021B013BFAD181
S3150000113000EB46002060A36020462946BDE8F84043
S31500001140FFF79EBF1946002200F062FF094BD6F852
S31500001150E4219A42636808BF033553B123682A78AD
S315000011601A70236862680133013A23606260002ABC
S31500001170F5D1F8BD000006402DE9F0410D680C469A
S3150000118015F0010FD0F80C526668EF78B6FBF3F64F
S3150000119016D04FF0010811461FFA83FC1FFA86FE8F
S315000011A06FF30517A3602661C4F80C800022A5F82A
S315000011B00EC0EF70A5F80CE0BDE8F04100F028BFC6
S315000011C05B0801214FF0020861F305171FFA83FC43
S315000011D011461FFA86FE2661A360C4F80C804FF400
S315000011E08062E4E72DE9F043CB68D0F8E471012B87
S315000011F087B00D46064643D03CD34FF0220814373D
S315000012004FF02009304629460022FFF71BFFFF2832
S3150000121002D107B0BDE8F083AA6AC0F30B03D46914
S31500001220AB61304629460293FFF772FE2A69029B9C
S315000012309A422BD373B3B3FBF4F204FB1234002CA3
S3150000124014BF042402242848D6F8E411EA6901925E
S31500001250814224D03A464B46304601A9FFF742FF69
S31500001260304641464FF4804200F0D8FE204607B093
S31500001270BDE8F0834FF02A0818374FF02809C1E778
S315000012804FF02E081C374FF02C09BBE702921AB913
S315000012900724E5E70424E3E713460724D3E7920788
S315000012A0D8D19D08A3EB85034FF0040E494630467E
S315000012B04FF4006203950293CDF810E000F0A8FE0B
S315000012C0039D5DB101982B460246396842F8041B1E
S315000012D0013BFAD100EB850001900393394601A842
S315000012E0FFF7CEFEBCE700BF000006402DE9F04147
S315000012F0CB68012B044688B0D0F8E40100F0988052
S31500001300C0F09180222600F11407202500230492C4
S31500001310C4F86032002A7CD0DFF87CE18B6AC969A8
S31500001320DB690391704500F08880204603A92A46B0
S31500001330FFF722FF584BD4F8E421DDF80C809A42DF
S3150000134000F09C803146204600F05EFE2946C4F837
S315000013506002204600F058FE80B2ADF80A00BDF8E3
S315000013600A3003F00F03ADF80A30BDF80A309BB21D
S31500001370C4F86032204629460F2200F03DFED4F81C
S315000013800C22D4F8F401D389D1789289D0F808E0F8
S31500001390006892B2C1F301118DE806009BB239468E
S315000013A04246DEF82470B847204629464FF480525C
S315000013B000F02EFEBDF80A20204692B2294600F023
S315000013C027FEBDF80A1089B23731490020460122AE
S315000013D000F01EFE069F059B079A0398049903FBDF
S315000013E007F302FB03F3C218CB1A04F511704FF092
S315000013F0FF310392049308F0FFFE294607464FF497
S315000014008052204600F0F8FD1FB1FF2008B0BDE86D
S31500001410F081204631464FF4804200F0FFFD002067
S3150000142008B0BDE8F0812A2600F1180728256DE7E7
S315000014302E2600F11C072C2568E789077FF475AF77
S31500001440B2FBF3F2D4F80C12079291F803E09B0872
S315000014504FF0020892B21FFA83FC042068F3051EBF
S3150000146006900593A1F80EC081F803E08A81204614
S3150000147029464FF4006200F0CBFD5BE7D4F80C324E
S31500001480DB7803F03003202B3FF45CAF102B0CBF4E
S315000014900237033756E700BF00000640F8B5154689
S315000014A00A68D2070C46064633D44A685708A2EBA8
S315000014B047024FF0020E19466260A760C4F80CE0BE
S315000014C04FF4806200F0A4FDD6F8E471204BA668C4
S315000014D09F4237D076B120683346024632F8021B67
S315000014E02980013BFAD11A4AA36000EB46009742D5
S315000014F020602AD0636823B323681B7805F8013976
S31500001500236862680133013A23606260002AF4D1DD
S31500001510F8BD1946002200F07BFD0D4BD6F8E421FC
S315000015209A42636808BF03355BB123681B782B704A
S31500001530236862680133013A23606260002AF5D1AC
S31500001540F8BDF8BD0235002EC5D10335D2E700BF80
S31500001550000006402DE9F041234F1546D0F8E4215E
S31500001560BA4206460C4606D0304621462A46BDE813
S31500001570F041FFF793BF0A689207F5D14A689708CA
S31500001580A2EB87024FF0040E6260A7601946C4F80A
S315000015900CE04FF4006200F03BFDA7685FB12068E5
S315000015A03B46024652F8041B2960013BFAD100EB88
S315000015B087002060A360D6F8E4210B4B9A4211D035
S315000015C063686BB123681B7805F801392368626884
S315000015D00133013A23606260002AF4D1BDE8F0814C
S315000015E0BDE8F0810335EBE70000064070B58B6877
S315000015F086B00D46064633B92022FFF723FDFF28A5
S3150000160006D106B070BD0022FFF71CFDFF28F8D0FA
S3150000161030462946FFF754FBAA6A2B69D2699A42DB
S3150000162004461ED3029363B3B3FBF2F102FB1132FD
S31500001630002A14BF0424032406A9EA6941F8142DDC
S31500001640D6F8E4216B61143220233046FFF782FF7F
S315000016503046222100F0D8FC030414D5204606B0FB
S3150000166070BDD6F8E421EB69686106A9304641F8F9
S31500001670143D143220230294FFF76CFF022006B0BB
S3150000168070BD0424D8E7304622214FF4004200F012
S31500001690C5FC2046B5E700BF2DE9F0410D680C46B4
S315000016A015F0010FD0F8F8516668EF78B6FBF3F63F
S315000016B016D04FF0010811461FFA83FC1FFA86FE6A
S315000016C06FF30517A3602661C4F80C800022A5F805
S315000016D00EC0EF70A5F80CE0BDE8F04100F098BC34
S315000016E05B0801214FF0020861F305171FFA83FC1E
S315000016F011461FFA86FE2661A360C4F80C804FF4DB
S315000017008062E4E72DE9F043002287B006460D46E5
S31500001710FFF798FCFF2802D107B0BDE8F0833046FA
S315000017202946FFF7CDFAAB6A2F69D3F81C80B84576
S3150000173019D2029007460224EB68D6F8E4215BBB77
S31500001740282318324FF02A0906A9E86941F8140D32
S315000017506F613046FFF7FEFE2B6998450ED820468E
S3150000176007B0BDE8F0830297DFB1B7FBF8F308FBDB
S315000017701373002B14BF04240324DDE730464946C7
S3150000178000F042FC0304EAD4304649464FF40042D6
S3150000179000F03EFC2046BFE72C231C324FF02E09FA
S315000017A0D2E70424C8E700BF2DE9F041174FD0F86F
S315000017B0E461BE4204460D4605D020462946BDE8F2
S315000017C0F041FFF769BF09688907F6D1D0F8F841FB
S315000017D06E68E778B6FBF3F602219B0861F30517FE
S315000017E01FFA86FE4FF004081FFA83FC2E61AB60D9
S315000017F0C5F80C801146A4F80EC0E770A4F80CE0FA
S315000018004FF40062BDE8F04100F002BC0000064063
S31500001810F0B504462B4FD0F8E401B84285B00E4629
S31500001820154642D01946204600F0EEFB0A99C4F848
S315000018306002204600F0E8FB80B2ADF80E00BDF86D
S315000018400E300A99204603F00F030F22ADF80E3032
S3150000185000F0D2FBD4F8F821D4F8F001D389D1787E
S3150000186092898768006892B2C1F301118DE806007B
S315000018709BB231462A467D6AA84720460A994FF40C
S31500001880805200F0C5FBBDF80E200A99204692B2A0
S3150000189000F0BEFBBDF80E1089B237312046490074
S315000018A0012200F0B5FB05B0F0BDD4F8F821D278DE
S315000018B002F03002202AB5D0102A0CBF02350335BB
S315000018C0B0E700BF00000640002967D02DE9F043CD
S315000018D016468BB0002204460D46FFF7B3FBFF28E1
S315000018E05ED0EB680696D4F8E4713BB32C261C3721
S315000018F0B0464FF02E090AA9EB6941F8143DAB6AD0
S315000019002046DB694246FFF74FFF3A4605990096A7
S315000019104B462046FFF77CFF4FF0FF3104F50A7077
S3150000192008F06AFC282106464FF48052204600F053
S3150000193063FB4EB106200BB0BDE8F08328261837AE
S31500001940B0464FF02A09D6E70899079B099A0698E8
S31500001950059D03FB01F302FB03F31D444146C31A35
S3150000196020460595069300F04FFB00F00F0000F1AE
S3150000197037056D0004962046294600F045FB039086
S31500001980049B01330493049BB3F5FA6FD2D8039BEF
S315000019905B04F0D403200BB0BDE8F083FF20704752
S315000019A0FF200BB0BDE8F08310B50C464C2100F0CB
S315000019B02BFBC0F30A002060002010BD036A0BB9A0
S315000019C055207047A1F10A03C06B0B2B21D8DFE825
S315000019D003F00E201114171A1D0620060B0800200E
S315000019E070471146FFF724BB1146FFF709BB1146A6
S315000019F0FFF7DABF114600F0EFBC114600F012BB4C
S31500001A001146FFF77BB91146FFF736BA1146FFF7C5
S31500001A109BBA5420704700BF38B5094B1C68D4F8F0
S31500001A20145100212846012200F0F2FA28463021FE
S31500001A304FF41F4200F0ECFA0123C4F8F83038BD29
S31500001A408051FE1F70B58A4A84B00023332190422C
S31500001A500193044602938DF8041065D0854B984295
S31500001A6007D002200146322208F0C2F9322004B023
S31500001A7070BD0A25022601A805F0A0F87E4B02AA31
S31500001A801B6901A8314698479DF8082053B213F107
S31500001A90210F12D0002B50DB03F160402D0102F024
S31500001AA01F0200F561405B090121744EEDB201FA97
S31500001AB002F280F8005346F82320714B1E6800207E
S31500001AC08023C6F8FC3001464FF4197208F038FA44
S31500001AD0054678B3674B6B4AC6F8140106F1D80180
S31500001AE09C42C6F808410160C0F8E4414FF000018D
S31500001AF0C6F8102100F09B80012200F07DFA2846EE
S31500001B000021402200F078FA594B9C4228461CD00E
S31500001B100021102200F07CFA28460021202200F045
S31500001B206BFA002004B070BD01238DF80530FF2547
S31500001B300426A0E7122004B070BD534B02F00F023A
S31500001B402D011344EDB21D76B7E702210F2200F0F6
S31500001B5065FA28463E214FF4004200F04DFA284629
S31500001B603E21102200F054FA28463E21202200F0A1
S31500001B704FFA06242846042100F046FA013CF9D122
S31500001B8028463E21012200F037FA41F270742846B9
S31500001B90042100F039FA013CF9D128463E210222FF
S31500001BA000F02AFA28464FF481714FF4804200F083
S31500001BB02FFA2846062100F027FAC307F9D528464A
S31500001BC00021802200F024FA28460021102200F08D
S31500001BD01FFA04AC28460021202200F00DFA002648
S31500001BE00F222846022144F8046D00F005FA274B1F
S31500001BF021469B6930469847039A254B2548A3FB07
S31500001C0002135B0D03EB8301A0FB02024900B1EB5B
S31500001C10524F38BF0133022B88BF023B28468CBF88
S31500001C209AB20022022100F0F3F900201FE74FF4D8
S31500001C30806200F0EDF92846002100F0E5F9420542
S31500001C40F9D528460021012200F0D6F928460021C0
S31500001C50402200F0D1F928460021102200F0D8F9E0
S31500001C6028460021082200F0C7F90020FFE600BF41
S31500001C70000006400000094010BD000000E100E041
S31500001C808051FE1FBD190000FCEC00E06CBD000099
S31500001C90B945511FDBC9921300B583B0FFF7D2FED9
S31500001CA018B90190FFF7B8FE019803B05DF804FB80
S31500001CB070B51F4D1F492C68D4F89C33012B07BF04
S31500001CC0D4F82803D4F82C33D4F83003D4F83433BA
S31500001CD0C4F82003C4F824330E2204F5087308F070
S31500001CE0FBF84FF47A72D4F83832D4F89412C4F868
S31500001CF0D02204F1D80604F51672C4F89812C4F876
S31500001D009022C4F87432C4F89C320E21D4F81031F3
S31500001D10304698472B68D3F8BC3300210222C4F81A
S31500001D205C12C4F8AC220BB101209847002070BDAC
S31500001D308051FE1F4000FE1F2DE9F84FDFF8B482E8
S31500001D40D8F80090D9F814414021204600F05CF9FB
S31500001D50430407460CD5D8F80030D3F8BC330BB192
S31500001D6005209847204640214BF6FF7200F056F9B1
S31500001D703E0400F1BF80FD0400F1A980780576D409
S31500001D80F90545D4BA0514D43B0501D4BDE8F88F4E
S31500001D90E16A07F00703303120464FF4006200F095
S31500001DA08BF9204640214FF2FF72BDE8F84F00F054
S31500001DB035B94821204600F027F9382181462046CA
S31500001DC000F022F904F5DE76824604F5F278012564
S31500001DD04FF02C0B04E0043646454FEA4505D3D0B8
S31500001DE015EA090FF7D015EA0A0FF4D0EA432046A0
S31500001DF092B2482100F012F933680BFB03432046E8
S31500001E00D96A4FF400723031002300F055F9E2E749
S31500001E104621204600F0F8F836218146204600F09B
S31500001E20F3F804F5DE76824604F5F27801254FF0E4
S31500001E302C0B04E0043646454FEA4505A2D015EAC8
S31500001E40090FF7D015EA0A0FF4D0EA43204692B2FA
S31500001E50462100F0E3F833680BFB03432046D96ABA
S31500001E604FF480723031002300F026F9E2E74A2170
S31500001E70204600F0C9F83A218146204600F0C4F811
S31500001E8004F5DE76824604F5F27801254FF02C0B38
S31500001E9005E0043646454FEA45053FF471AF15EABD
S31500001EA0090FF6D015EA0A0FF3D0EA43204692B29C
S31500001EB04A2100F0B3F833680BFB03432046D96A86
S31500001EC04FF480623031002300F0F6F8E1E7204657
S31500001ED040214EF6FF7200F0A1F807F07003102BB8
S31500001EE04DD03AD9202B61D0302B39D10323C4F8F9
S31500001EF0EC3143E72046402147F6FF7200F08EF8AA
S31500001F004021204600F080F8402100F0800620465F
S31500001F1000F07AF805464021204605F0800500F0DD
S31500001F2073F8AE42ECD100F080008642E8D1304B27
S31500001F30D9F808213EB19A4245D020460021102208
S31500001F4000F066F817E79A4244D020460021102296
S31500001F5000F052F807F03AFD0DE7002B3FF40EAF04
S31500001F60D8F80030D3F8BC330BB104209847D9F821
S31500001F701C32002B3FF402AF07F028FDFEE6204698
S31500001F80082100F041F800F00700022815D00328C8
S31500001F9027D0012804D1D8F800300022C3F89C23AA
S31500001FA0FFF786FE0123C9F81C32E7E620465021DA
S31500001FB000F02AF8C9F80C01E0E6D8F80030012252
S31500001FC0C3F89C23ECE7204600214FF4807200F012
S31500001FD01FF8B2E7314620464FF4807200F00CF845
S31500001FE0B3E7D8F800300222C3F89C23D8E700BF35
S31500001FF0000006408051FE1FD0F8E4010B5A23EA88
S3150000200002020A52704700BFD0F8E431C85A70473E
S31500002010D0F8E4010B5A1A430A527047D0F8E4315B
S31500002020CA5270478B6870B59C6864212289054640
S31500002030FFF7F4FFA368002B3CD028462146FEF7A5
S3150000204067FF284622214FF48042FFF7E7FF284624
S315000020502A214FF48042FFF7E1FF2846214600225D
S31500002060FEF7E8FDA368012606FA03F292B22846B7
S315000020704A21FFF7C1FFA36806FA03F292B2284687
S315000020804621FFF7B9FFA36806FA03F292B2284683
S315000020904821FFF7B1FF284621460022FEF760FDE2
S315000020A0284621460022FEF7E1FC2846214600226A
S315000020B0FEF706FD002070BD2DE9F047D1F8088037
S315000020C0B2F5006F0C460746D8F8085027D0B2F58F
S315000020D0807F05D0B2F5806F02D00020BDE8F08782
S315000020E0636A022B00F0A680E2695ABBE66C012EF9
S315000020F000F03781226238462946FEF7B7FCAB6806
S31500002100002B40F040816A68012A00F05A81A36AD8
S31500002110002BE2D0204698470020BDE8F087013B1F
S31500002120052BDAD801A252F823F000BF9521000052
S31500002130DB20000095210000DB2000009521000037
S315000021402B220000D8F81C302169E961934228BF90
S3150000215013466B61294638469846FEF72BFD2E69D5
S315000021602169E369A269C8EB06064144C8EB03038B
S315000021704244FF282E612161E361A261ADD0A968C6
S31500002180002900F0A8803731490038460122FFF7C0
S315000021903FFFA2E74FF6F7724021FFF73FFF5421BA
S315000021A03846FFF731FF81B204F1500008F050F8CD
S315000021B056213846FFF728FF81B204F1520008F095
S315000021C047F858213846FFF71FFF81B204F1540043
S315000021D008F03EF85A213846FFF716FF04F1560973
S315000021E081B2484608F034F894F9503000264FF092
S315000021F00108B342A6612662C4F8048003DBB4F882
S315000022005630002B6FD1204607F0E2F994F9503092
S31500002210002BC0F2BF80B4F85660002E00F0C680D6
S3150000222002236B600020BDE8F08700236B60FF206F
S31500002230BDE8F0876369D8F81C202B6193422369B7
S3150000224088BF2A61EB6138462946FEF763FC60B118
S31500002250AB68002B3FF441AF2046232340F82C3BCC
S3150000226007F0EEFF0020BDE8F087A869E269A369E0
S315000022702169121AE26162690344014493422161B1
S31500002280A36104D0D8F81C30834200F09480002269
S31500002290226238462946FEF763FCAB68002B72D1F2
S315000022A06B68022B7FF419AF204607F091F9A36AF9
S315000022B003226A600BB1204698470026032338465E
S315000022C0E6616661636260216B600522FFF7A0FE2E
S315000022D03046BDE8F087384660210122FFF798FEB8
S315000022E00020BDE8F0874FF0020A4846C4F824A053
S315000022F007F0A8FFE3686061236138466021032286
S31500002300A661FFF779FEAB6808FA03F292B2384687
S315000023104A21FFF771FEAB6808FA03F292B238461B
S315000023204621FFF769FE384622214FF48042FFF727
S3150000233075FE38462A214FF48042FFF76FFE384675
S3150000234029463246FEF776FC384629464246FEF7CF
S3150000235007FC384642466021FFF75AFEC5F804A03E
S3150000236054E72A6138462946FEF724FCFF2806D0A2
S31500002370A968A1B9384632466021FFF749FE002018
S31500002380E064BDE8F0872046022340F82C3B07F0C6
S3150000239057FFA2E601236B600020BDE8F0873731C6
S315000023A0490038463246FFF733FEE8E70323E66185
S315000023B06661384686E7AB68002B8CD003F137019F
S315000023C0E2E603226262E361636138466A60602185
S315000023D00522FFF71DFE9AE62DE9F04F0E4683B063
S315000023E00446EFF3108B72B6D1F80880D8F808507F
S315000023F0A968002955D160210322FFF7FDFDAB68CE
S31500002400012707FA03F292B220464A21FFF7F4FDAC
S31500002410AB6807FA03F292B220464621FFF7ECFDBD
S31500002420736A032B53D0204629460022FEF798FBF9
S31500002430204629460022FEF719FBD4F8F43133B1C1
S31500002440EB68022B03D0AB68002B40F0FA802046E5
S3150000245029460022FEF7EEFB204622214FF4804259
S31500002460FFF7DCFD20462A214FF48042FFF7D6FD18
S31500002470294620460122FEF773FBA968002900F0D1
S31500002480C2803731490020460122FFF7C1FD8BF398
S315000024901088AB68002B40F0C180002003B0BDE877
S315000024A0F08F37314900FFF7AFFD410407D5A96822
S315000024B0373149002046FFF7A7FD4204F7D4A96843
S315000024C03731490020460322FFF796FD97E7D4F8F7
S315000024D0F0319BB3EB68022B30D0D6F81490D8F8C5
S315000024E01CA0D1452ED94FEA8A23B9FBF3F2C4F8D2
S315000024F02422D4F824220132C4F82422D4F8242237
S31500002500002A67D04FF0000CF069E14698421F465A
S3150000251009F1010905D2B0FBFAFC0AFB1C0CCCEB55
S315000025200007002F40F0BB80D4F824324B4540F220
S31500002530DD80D8F81CA04FEA8A23E7E7D8F81CA06C
S31500002540D6F81490F368EB61204629462022C5F898
S315000025501090FEF76FFB204622214FF48042FFF7D2
S315000025605DFD20462A214FF48042FFF757FDF368B0
S31500002570EB6120462946FEF71DFBFF283ED02F695A
S315000025803069B269F369A968CA4528BFCA46CAEB69
S31500002590070750445244CAEB03032F613061B2610E
S315000025A0F361002940F02981204660210122FFF7CE
S315000025B02FFD8BF31088AB68002B3FF46EAF06F14E
S315000025C02C004FF0FF3107F017FE00287FF466AFAE
S315000025D0306A63E7AB6807FA03F292B220464A21F3
S315000025E0FFF70AFDAB6807FA03F292B220464621CE
S315000025F0FFF702FD00200223306233608BF3108860
S3150000260003B0BDE8F08F204660210122FFF700FDF0
S315000026108BF31088AB68002B3FF43FAF06F12C001C
S315000026204FF0FF3107F0E8FD00287FF437AF306A3E
S3150000263000287FF433AF3368232B7FF42EAF23209B
S315000026402CE77269D8F81C309A427FF600AF9F02D9
S31500002650B2FBF7F2C4F82422D4F824220132C4F8DB
S315000026602422D4F82422002AC4D04FF0000AF069AC
S31500002670D146B84205D2B0FBF3FA03FB1A0ACAEBFD
S315000026800007002F40F08980D4F8243209F10109AF
S315000026904B4540F2B980D8F81C309F02E9E7204646
S315000026A029462022CDF804C0FEF7C4FA204622218E
S315000026B04FF48042FFF7B2FC3369EB613A46294694
S315000026C02046FFF701F92A693369F069B169DDF837
S315000026D004C03B44D21B2A613361D4F82432C01BA8
S315000026E04B450F44F061B7613FF623AFAB68CDF8B9
S315000026F004C0012707FA03F292B220464A21FFF7E7
S315000027007BFCAB6807FA03F292B220464621FFF73C
S3150000271073FCDDF804C0BCF1000F3FF46BAF336906
S31500002720D6F81C90D8F81C80EB612046294620225A
S31500002730C5F81090FEF77EFA204622214FF480421B
S31500002740FFF76CFC20462A214FF48042FFF766FC17
S315000027503369EB6120462946FEF72CFAFF283FF441
S315000027604DAF28693169B269F369D5F808E0C1450A
S3150000277028BFC146C9EB000049444A44C9EB0303DC
S3150000278028613161B261F361BEF1000F62D120466A
S315000027903A466021FFF73CFC0BE7204629462022FB
S315000027A0FEF748FA204622214FF48042FFF736FC16
S315000027B0204629463A46FEF799FD0190A968373129
S315000027C049002046FFF720FC4304F7D4A9683731B7
S315000027D0490020460322FFF70FFC019B002B41D145
S315000027E02A693369F069B169D21B3B44C01B0F44A7
S315000027F02A613361F061B76146E737314900204607
S315000028000122FFF705FCD4E6BAF1000F3FF4F2AE61
S31500002810204629460022FEF70DFA204622214FF4D3
S315000028208042FFF7FBFB20462A214FF48042FFF748
S31500002830F5FB204629460122FEF792F9AB68002BEC
S315000028403FF4E1AE03F13701490020460122FFF7CC
S31500002850DFFB1CE60EF13701490020463A46FFF73A
S31500002860D7FBA6E6019819E62DE9F047BB4E33687B
S315000028701B69AC2404FB0034636B53B9D4F8A8502D
S31500002880226BD5F8C830012A03F10103C5F8C83018
S3150000289001D0BDE8F0873021284600F001FA322148
S315000028A08046284600F0FCF940210746284600F0FD
S315000028B0F7F900EA0800C5F8CC004221284600F0E6
S315000028C0EFF9D5F8CC3038409A04C5F8D00000F1BD
S315000028D08381030400F17481D5F8CC305F0500F1E3
S315000028E04181D80500F10C81990500F1DD80D5F80C
S315000028F0D0301A0500F19180DF047AD458044BD405
S31500002900590634D4DA0619D49B06C2D528464FF6A2
S31500002910DF72422100F0CEF9D5F8DC20D4F88C30F5
S31500002920306842F020020133C5F8DC2000F5217042
S31500002930C4F88C30BDE8F04707F082BC2846422137
S315000029404FF6EF7200F0B6F9D5F8DC20D4F88C30EB
S315000029503068013342F04002C5F8DC2000F52170F2
S31500002960C4F88C3007F06CFCD5F8D030CCE728469C
S3150000297042214FF6BF7200F09DF9636C3068013357
S31500002980002103226364EC30C5F8D4102A6107F0F5
S3150000299057FCD5F8D030B5E7284642214BF6FF72F2
S315000029A000F088F9D5F8D47007BB2B69012B1DD030
S315000029B0284632214FF4804200F06CF92846322135
S315000029C04FF4805200F070F9636C01210B4463648C
S315000029D02846C5F8D4103A465E2100F065F93068FD
S315000029E04FF0FF33EC30AB6107F02AFCD5F8D0305E
S315000029F086E7284642214EF6FF7200F05BF928462C
S31500002A0042214FF2FF7200F055F9D5F8D430012B70
S31500002A1000F00281D5F8D03070E7284642214FF207
S31500002A20FF7200F047F94EF6FF722846422100F089
S31500002A3041F90421284600F033F910F002074FF05F
S31500002A403C0128464FF4807200F0D98000F02CF942
S31500002A50434B6A689A4200F01481D5F8D47007BBDC
S31500002A602B69012B1DD0284632214FF4006200F05D
S31500002A7011F9284632214FF4805200F015F9636CA3
S31500002A8001210B4463642846C5F8D4103A465E21FA
S31500002A9000F00AF930684FF0FF33EC30AB6107F015
S31500002AA0CFFBD5F8D03027E72846482100F0F8F8C4
S31500002AB005F1DC07824605F582794FF001086FEAD9
S31500002AC0080218EA0A0F28464FF0480192B24FEA68
S31500002AD0480807D0BB6A1BB13B6843F002033B6062
S31500002AE000F0E8F804374F45E9D1D4F88C30306867
S31500002AF00133C4F88C3000F5217007F0A1FBF6E62F
S31500002B002846462100F0CCF805F1DC07824605F59B
S31500002B1082794FF001086FEA080218EA0A0F284680
S31500002B204FF0460192B24FEA480807D0BB6A1BB184
S31500002B303B6843F001033B6000F0BCF804374F45A7
S31500002B40E9D1D4F88C3030680133C4F88C3000F504
S31500002B50217007F075FBD5F8CC30C5E68451FE1F11
S31500002B600000064028464A2100F09AF805F1DC07E5
S31500002B70824605F582794FF001086FEA080218EAE5
S31500002B800A0F28464FF04A0192B24FEA480807D08A
S31500002B90BB6A1BB13B6843F004033B6000F08AF854
S31500002BA004374F45E9D1D4F88C3030680133C4F886
S31500002BB08C3000F5217007F043FBD5F8CC3090E659
S31500002BC02846422147F6FF7200F074F801200146BC
S31500002BD0432207F00DF97FE6284640214DF6FF72A5
S31500002BE000F068F8D4F88C3030680133C4F88C30C3
S31500002BF000F5217007F024FBD5F8D00069E600F057
S31500002C0049F8234B6A689A427FF427AF394628462B
S31500002C10802200F049F820E72B69012B7FF4FAAEF9
S31500002C20284632214FF4805200F034F832212846EB
S31500002C304FF4006200F038F805F5807305F59471DD
S31500002C4053F8042F2AB153F8282C42F0800243F897
S31500002C50282C8B42F4D1D4F88C3030680133C4F878
S31500002C608C3000F5217007F0EBFA636C30680022B7
S31500002C7001336364EC30C5F8D4202A6107F0E0FA2A
S31500002C80C8E628460021802200F004F8E5E600BFE9
S31500002C900000064040680B5A23EA02020A527047B7
S31500002CA04368C85A704700BF40680B5A1A430A5215
S31500002CB0704700BF4368CA52704700BF70B4104CDB
S31500002CC02368020A9A4216D26568C0B200F110065D
S31500002CD0012355F8225003FA06F62E420BD069B1AD
S31500002CE000EB0210A36853F82030C3F34003002022
S31500002CF00B7070BC7047032070BC70471846FBE72A
S31500002D003401FE1F084B1A68000A904201D30320C3
S31500002D10704731B1DA684301043200209B580B80BA
S31500002D2070470120704700BF3401FE1F084B1A6828
S31500002D30000A904201D30320704739B1DA68430193
S31500002D40043200209B581B0C0B80704701207047F3
S31500002D503401FE1F144A1368F0B4040A9C421DD2C3
S31500002D605768C5B205F11006012357F8244003FA47
S31500002D7006F6264212D0A1B1D468000A04344001F6
S31500002D8003FA05F2005992B202EA1040904213BFCC
S31500002D90002000200B700870F0BC70470320F0BCC8
S31500002DA070471846FBE700BF3401FE1F0C4B10B4FA
S31500002DB01C68000AA04200D21AB903205DF8044B31
S31500002DC07047DB685DF8044B083303EB401022EADA
S31500002DD00103114041EA034141600020704700BFF2
S31500002DE03401FE1F154BF0B41C68020AA2420AD237
S31500002DF05E68C7B207F11005012456F8222004FACE
S31500002E0005F5154202D10320F0BC70470129FAD816
S31500002E10DB6800F47F4003F1080303EBD00008D021
S31500002E204368BC4043EA0444240C24044460002064
S31500002E30EAE74468B9400C43A4B2F7E73401FE1F41
S31500002E4040B101230521022201704370C3708270D4
S31500002E500020704701207047012901D903207047DF
S31500002E60114A1368F0B4040A9C4216D25768C5B2D8
S31500002E7005F11006012357F8244003FA06F6264208
S31500002E800BD000F47F40AB4051B91B04D268C00898
S31500002E90083219438150002000E00320F0BC70473F
S31500002EA099B20023F2E700BF3401FE1F012901D9C0
S31500002EB0032070472C4BF0B51C68020AA2424ED282
S31500002EC05D68C0B200F11006012455F82250B440E6
S31500002ED02C4244D000EB02109C681D6954F8203047
S31500002EE000293ED043F00401204E0E40EFF3108738
S31500002EF0012383F310881E4B1A8892B222B94FF031
S31500002F00400EEA7085F803E01A88013292B21A8000
S31500002F1087F31088CF0354F8202007D5154F22F4E5
S31500002F2080320F4044F8202044F8207044F8206096
S31500002F30EFF31081012282F310881A880C4892B2AE
S31500002F401AB10288013A92B202801B889BB213B969
S31500002F508022EB70EA7081F310880020F0BD032018
S31500002F60F0BD23F00401BFE73401FE1FD5FC011FAD
S31500002F708801FE1FD5FC001F0AB9032070470B4BC2
S31500002F8010B41C68000AA04203D303205DF8044B6A
S31500002F907047DB6822EA0104400108330A4042EA2E
S31500002FA00442C2505DF8044B002070473401FE1FF6
S31500002FB00AB9032070470D4B70B41C68000AA04282
S31500002FC002D3032070BC70474001DD682E582B5891
S31500002FD002EA01043443A4B261EA02021B0C224055
S31500002FE01B041A432A50002070BC70473401FE1F90
S31500002FF02DE9F041002839D009681E4D002701EB64
S31500003000C000B8464FF0010E8C88002335F8132017
S31500003010A24218D00133032BF8D108318142F3D1F3
S31500003020FF43FFB2012003F0E7FE134A92F8BB34D8
S3150000303048EA030808EA070782F8BB740120BDE8DE
S31500003040F04103F0A9BE0A6802F0B852B2F1807FDF
S3150000305005D00EFA03F647EA0602D7B2DAE70EFA09
S3150000306003F248EA02085FFA88F8D3E78046FF27AA
S31500003070D8E700BF54BC000000E0014070B582B044
S3150000308002AB002403F8044D054618460E4603F02D
S3150000309019FC9DF80430DB0702D4062002B070BD8F
S315000030A0202D02D9032002B070BD012EFAD8084B9C
S315000030B01A69137805D02B4303F0300320461370AA
S315000030C0ECE703F0300323EA050520461570E5E733
S315000030D03401FE1F002867D02DE9F84F4368002B06
S315000030E05FD00146804631F8040BFFF781FFB8F840
S315000030F00030002B52D02D4CDFF8B4E0A146002260
S3150000310001204FF0400B4FF0800AD8F80430DEF86B
S31500003110107053F83260DEF8085003EBC20399884A
S315000031200B0AC9B201EB0313EFF3108C80F310887E
S31500003130218889B211B9F97087F803B02188013165
S3150000314089B221808CF3108816F4803F55F823103D
S3150000315007D021F4803126F4803C45F8231045F849
S3150000316023C045F82360EFF3108180F3108823888D
S315000031709BB22BB1B9F80030013B9BB2A9F80030E5
S3150000318023889BB213B9FB7087F803A081F31088DC
S315000031900132B8F8003092B29342B6D80020BDE8AA
S315000031A0F88F0120BDE8F88F012070478801FE1FC7
S315000031B03401FE1F002832D04368002B2FD0F0B513
S315000031C087B006AC002309210193164A04F8141DA2
S315000031D0154ED7680293054603930493059302A9F7
S315000031E02046B8474FF00A0C029ABDF80C308DF80D
S315000031F004C002A9F2602046059A72603360B8479F
S315000032000122029B8DF8052002A92046B360B8472B
S31500003210029B33612846FFF75DFF07B0F0BD012032
S31500003220704700BF10BD00003401FE1F2DE9F041BC
S31500003230304C2268050A954284B003460CD2626877
S31500003240C6B20F464FF0010806F1100152F82520CC
S3150000325008FA01F1114203D1032004B0BDE8F08160
S3150000326004A902AA41F80C2D4046ADF80C3002978D
S31500003270ADF8008006EB0515FFF7BAFE2069A268D7
S31500003280EFF3108488F310881B490B889BB213B99F
S315000032904026C370C6700B8801339BB20B8084F343
S315000032A01088FC0352F8253007D523F4803327F421
S315000032B0803442F8253042F8254042F82570EFF375
S315000032C01082012383F310880B880B4C9BB25BB9E9
S315000032D00B889BB213B98021C370C17082F310882A
S315000032E0002004B0BDE8F0812388013B9BB2238017
S315000032F0EEE700BF3401FE1F8801FE1F20B1034B1D
S315000033001B680360002070470120704784BC0000E2
S315000033102DE9F04782B002AC002544F8045D3C4D2F
S315000033208946AF6982469046214603201E464C4692
S315000033300025B847B8F1060F34D8DFE808F00F3794
S315000033404953575B040000214FF47A7202FB09F2DD
S315000033500B46019807F0FAFC04460D469AF813301E
S31500003360012B07D000230A9A00201370346002B0A4
S31500003370BDE8F0874FF6FF700021A94208BFA042C2
S315000033804FF00003EFD2A208AF0842EA8572B942B5
S3150000339003F1010308BF904214463D46DBB2E2D278
S315000033A0052BF0D1032002B0BDE8F087019816A3E3
S315000033B0D3E90023A9FB000107F0C8FC04460D462B
S315000033C09AF81330012BD5D04FF0FF300021D4E707
S315000033D00198104A0023A9FB000107F0B7FC044638
S315000033E00D46EDE701984FF47A72F3E7019CA9FBCD
S315000033F00445E5E72B464A460198002107F0A6FC5E
S3150000340004460D46AAE700BF00CA9A3B000000002A
S315000034106CBD000040420F00012A70B506461C46EE
S315000034202FD02AD3022A15D1A1FB0301194A002362
S31500003430002507F08BFC012E0ED0A94208BFA04242
S3150000344015D0002908BFB0F1FF3F10D08D4208BF4C
S3150000345084420ED2032070BD14F1FF3245F1FF33D2
S31500003460101A63EB01018D4208BF8442EED14FF082
S31500003470FF30049B1860002070BD0846002500211F
S31500003480D9E7A1FB030164220023002507F05EFCB7
S31500003490D1E700BFA086010068B1084BC2689A4216
S315000034A001D00720704783682BB1DA6A22F0010247
S315000034B0DA62002070470120704700BF5450470071
S315000034C068B1084BC2689A4201D0072070478368EA
S315000034D02BB1DA6A42F00102DA620020704701205D
S315000034E0704700BF5450470030B129B1074BC2683E
S315000034F09A4203D007207047012070478368002B4B
S31500003500FAD09B6C0B600020704700BF54504700F8
S3150000351000B3114BC2689A4201D0072070478368F6
S31500003520C3B130B4EFF31084012383F310888368AA
S31500003530DA6AD96A002021F00101D9629864DD6A4D
S3150000354002F0010125F001020A43DA6284F31088D1
S3150000355030BC7047012070475450470078B170B5B1
S315000035601D4CC568A54284B002D0072004B070BDCA
S315000035708468002C2ED021B9032004B070BD012030
S3150000358070470DF10B030025009303AB044603952A
S315000035908DF80B50FFF7BCFE0028E7D1A368DA6A66
S315000035A0D96A21F00101D962D96A9DF80B4021F050
S315000035B0E06104F0070441EA0461D9620399013924
S315000035C059669864D96A02F0010221F001010A43A2
S315000035D0DA62CBE70120C9E75450470030B129B180
S315000035E01E4BC2689A4203D00720704701207047DD
S315000035F02DE9F041876882B06FB37B6E0E4602A953
S3150000360000250133B36041F8045DFA6A04461448A4
S31500003610C2F302688369032098474FEA48080123EA
S3150000362003FA08F2019BB3FBF2F373603B6B03F002
S3150000363001033370FB6A13F0010F0CBF01232B4605
S315000036403373237C03EB83035B00B6332846F38195
S3150000365002B0BDE8F0810120FAE700BF54504700F0
S315000036606CBD000000B3F0B52A4CC568A54285B014
S3150000367002D0072005B0F0BD8768BFB104AE04468E
S31500003680002046F8040D1D467B6E207D0096013312
S31500003690FFF7C2FE0028EDD1039BA26843B98DB1A6
S315000036A0012D24D01846E5E7012070470120E1E707
S315000036B0591C14D075B9116B21F440311163284699
S315000036C05365D7E7136B23F4403343F4003328469E
S315000036D01363CFE7012D18D093650020CAE775B1B3
S315000036E0012DC7D1136B43F040731363C2E7116B0F
S315000036F021F0407141F0007118461163BAE7136B6F
S3150000370043F4403328461363B4E7116B21F040714C
S315000037101163E1E754504700002847D0244BC268A4
S315000037209A4201D0072070478368002B3ED030B5FF
S315000037309A6B22F0C0029A63DA6A22F00102DA6218
S31500003740817C4AB2002A83B00DDB52092032012463
S31500003750184D01F01F0104FA01F145F82210BFF3DC
S315000037604F8FBFF36F8FDA8E22F48072DA869A8ECD
S31500003770044622F4807202A800252B219A86019520
S31500003780237C00F8041DADF8063003F0BDFA94F969
S315000037901230657413F1210F04D0074A126852F8EB
S315000037A033301D600020E06003B030BD012070475B
S315000037B05450470000E100E0A0C20000002962D09A
S315000037C0002860D02DE9F041A94F8AB000230C46AD
S315000037D00546487C04932B21ADF812008DF8101095
S315000037E0FA688DF80B3003930693079308930993B1
S315000037F004A806A99047064610B10AB0BDE8F081B4
S315000038000AAA069942F8140D3B69A96004A8062184
S31500003810BDF81E809847BDF81E309DF81420AA7486
S315000038205B075CBF0123EB740DF10B0348BFEE741D
S315000038306168227A0093284603ABFFF769FD0028EA
S31500003840DBD16369002B00F0638195F912202132E8
S3150000385025D0A2696A602B60637C2B742378012BC8
S3150000386000F05B81E169002208792875022B6A74F1
S3150000387006920AD004A803F013FA074688B1082076
S315000038800AB0BDE8F0810120704706AEE168227CEF
S31500003890039B0096FFF7C0FD0028EBD0ADE70B2099
S315000038A0ABE7AE6804A803F089F9F16A4FEAD808D5
S315000038B04FF0FF3321F001014FF4254E012028F08F
S315000038C00102F162C6F800E0376177617761F7615E
S315000038D037627762B762F76230637763B763F7631D
S315000038E03764B764F36433657365B3657366B3664B
S315000038F0C6F88870C6F88C308AB17764F366336789
S31500003900F3677367C6F88030B367C6F88430C6F8C5
S315000039109030C6F89430C6F89830C6F8A070AE68F5
S315000039200698F36A9DF80B10039A23F4E023F362DA
S31500003930336B43F002033363336B43F001033363AA
S31500003940336B23F002033363F36A01F0070123F0BC
S31500003950E06343EA0163013A0021F3627266B164EF
S31500003960E36933B11A78002A40F088809A78002AF1
S315000039703CD1B36B23F0C00343F04003B3636369E8
S31500003980002B00F0D180A87C3A4AA37C126841B291
S315000039900029C0F2B58001F160401B0100F56140CD
S315000039A0DBB280F8003352F8313095F912001D6011
S315000039B003F04AF9AA7C53B2002B0DDB5B099B008E
S315000039C003F1604303F5614302F01F02012101FA8E
S315000039D002F2C3F880211A60E37C1BB1F36A43F05C
S315000039E00103F362244BEB60002006E7AA68D9784E
S315000039F0938E277801F0010E23F0100343EA0E138D
S31500003A009386938E01F0030E23F0C00343EA8E13D0
S31500003A109386938E012F43F00C03938600F08E80DD
S31500003A20002F00F086802B7D002B40F0D880938EEF
S31500003A3023F0030343F001039386938E23F00C03D4
S31500003A4043F008039386136C23F4402343F4802346
S31500003A501364136B002840F0B48023F0407343F0E6
S31500003A6000731363938E43F48073938681E700BFDC
S31500003A7010BD0000A0C2000054504700AA6893F889
S31500003A8001E0D78E94F800C00EF0010827F0100769
S31500003A9047EA0817D786D78E0EF0030827F0C00727
S31500003AA047EA8817D786D78EBCF1010F47F00C0777
S31500003AB0D78667D0BCF1000F5FD0297D002940F082
S31500003AC09B80D18E21F0030141F00101D186D18E78
S31500003AD021F00C0141F00801D186116C21F440312E
S31500003AE041F480311164116B002871D121F4403109
S31500003AF041F400311163D18E41F48071D18635E7EE
S31500003B00524F00F00F001B010744DBB23B764AE739
S31500003B102278012A7FF4A0AE97E6E2696B741379E6
S31500003B202B7500230693A5E62378012B7FF454AF6B
S31500003B3029E7938E23F00303938693E70023136507
S31500003B40136C23F4402343F480231364EB7C012B92
S31500003B500CBF4FF6FF734FF0FF339365938E23F040
S31500003B600303002955D143F002039386938E23F075
S31500003B700C0343F00403938674E7D18E21F003010E
S31500003B80D186B8E7D164116C21F4403141F480311B
S31500003B901164E97C01290CBF4FF6FF714FF0FF312C
S31500003BA05165D18E21F00301BEF1000F3BD141F0EA
S31500003BB00201D186D18E21F00C0141F00401D1869B
S31500003BC099E7411C39D023F040731363906549E7A8
S31500003BD0471C36D021F44031116350658BE7938E34
S31500003BE023F0030343F002039386938E23F00C0322
S31500003BF043F00403938626E7D18E21F0030141F0BA
S31500003C000201D186D18E21F00C0141F00401D1864A
S31500003C1063E743F001039386938E23F00C0343F08E
S31500003C20080393861EE741F00101D186D18E21F06B
S31500003C300C0141F00801D1865DE743F04073136340
S31500003C4010E741F44031116355E700BFFCEC00E09A
S31500003C5010B5012082B004F095F8EFF30383174AFC
S31500003C60103B12685BB252F833301C68EFF30380E6
S31500003C70103840B202F0E8FF5CB1627CA3686AB912
S31500003C80236833B16268009200228DF804206846EA
S31500003C909847012004F074F802B010BDDA6A0021DA
S31500003CA022F00102DA6299649A6B22F0C0029A63EA
S31500003CB0DA6B22F04002DA63E2E700BFA0C200003E
S31500003CC0024658B1064B07491B68002B08BF0B4636
S31500003CD00020596803EB8103136070470120704789
S31500003CE04801FE1F48BE000088B10A4B1B6863B13D
S31500003CF05A6800F1100103EB820353F8042F40F8D1
S31500003D00042B8842F9D1002070471C2070470120FF
S31500003D10704700BF4801FE1F70B36AB3174BF0B57A
S31500003D201E681EB3164B07781B68002404E0013496
S31500003D30B44203F1080319D09D79BD42F7D193F837
S31500003D4005E04588B5EB9E0FF1D1DD7990F801E0ED
S31500003D5005F0070CF445EAD1B1EBD50FE7D19B8806
S31500003D601470C3F3090353800020F0BDDF21FF2345
S31500003D70117053800B20F0BD01207047C801FE1F53
S31500003D80A0C2000020B1034B1B68036000207047EF
S31500003D900120704728BD000070B42A4C216851B13B
S31500003DA0234604F57F70002201E053F8041F834286
S31500003DB00A44FAD11AB100BE1D2070BC7047224DCC
S31500003DC022482A600368190CB1F5807F02D00020D2
S31500003DD070BC7047196801390331F8D81C495E6A0E
S31500003DE08E42F4D12B6001686368486804EB830354
S31500003DF001EB800101F12300233301214FF47E45BD
S31500003E0003E0013201310138013B25FA02F4E407EF
S31500003E1007D5072A10D0082A07D01E780478A642AC
S31500003E20C9D11029EDD10020D2E70478372CE8D08B
S31500003E301E78A642E5D0BEE706781C78A642E0D2F8
S31500003E40B9E700BF48BE00004801FE1F9CB17F4095
S31500003E505237465300285ED000295CD08B4B2DE9A3
S31500003E60F0439A6890F800C003EB82029478A44568
S31500003E7037D24FEA1C1802EB88060CF00F0735897B
S31500003E80D2F804E025FA07F919F0010F29D0072F17
S31500003E90B67A09D902EB88080CF0070798F80BC028
S31500003EA00CF00F0C66442D0ADFF8E481DFF8E4C15C
S31500003EB018F80780754F08EA050524091CF805500F
S31500003EC0023402EB8402AC1902EB440532F81420EA
S31500003ED06C78C2F30902250603EB820305D4002B96
S31500003EE04BD14FF4AF60BDE8F08317F82220457838
S31500003EF05208FDB14FF0020E012604271C78E40794
S31500003F0005F1FF3552D5052A00F2BE80DFE802F042
S31500003F10332D211C1A05012070479A781EFB026476
S31500003F20033204EB9202920013441A785408224694
S31500003F30002DE3D1042A00F2A480DFE802F06363D7
S31500003F4063503B000822EFE79A7817FB0262920063
S31500003F50EAE793F804C09C7814FB0CF2D41C0CF12D
S31500003F60030204EB92029200DEE71A79033222F092
S31500003F7003020C32D8E70C22D6E74478B4B9DC78D1
S31500003F80C4F303144C72DC780125C4F303048C7269
S31500003F908D804088002843D137F822200EEB02227C
S31500003FA00A609B78CB800872C86015E040F27950B1
S31500003FB0BDE8F083DA78C2F303124A72DA78C2F304
S31500003FC003028A725878C88000228A800A72CA6000
S31500003FD05B680B608307E9D50020BDE8F083DA78DB
S31500003FE0C2F303124A72DA78C2F303028A725A786B
S31500003FF0CA809A788A80043304200022CB60087233
S315000040000A60E9E7DC78C4F303144C72DC78C4F385
S3150000401003048C721D79ACB28C804088844203D82C
S3150000402040F27A50BDE8F083DC889E68012A04FBE2
S3150000403000640C601CD0022A0AD09C785B780022AF
S3150000404043EA0424CC800A72CA60002CE8D0C3E795
S315000040501C18EA1C247BCC809D780D72920805FB07
S31500004060002003EB80030C33CB60002CD8D0B3E7E1
S31500004070034400221C7BCC800A72CA60002CCFD07D
S31500004080AAE76420BDE8F08300224DE748BE0000A1
S3150000409088BC000090BC0000034B04301B6823F86A
S315000040A020100020704700BF8C01FE1F034B021D2D
S315000040B01B68002023F82200704700BF8C01FE1FFA
S315000040C0034B1A68137863F07F0313700020704760
S315000040D08C01FE1F034B1A68137803F07F031370DD
S315000040E0002070478C01FE1F20B1034B1B68036044
S315000040F0002070470120704748BD000060B10128CC
S3150000410008D1094B1B680020402141221871197102
S315000041101A71704701207047034B1B6840214122EA
S31500004120987099709A7070478C01FE1F002836D0DF
S3150000413070B51C4986B000230B22019302930393AA
S31500004140049305930546CB688DF8042001A802A9BF
S315000041509847044608B106B070BD134E029B336003
S3150000416001A802F02BFD6B6873B130682346AA687C
S3150000417012F8231002EB83020431528820F8212022
S315000041806A6801339A42F2D828780028E3D0326868
S315000041901378002063F07F03137006B070BD012012
S315000041A0704700BF10BD00008C01FE1F094A0A4B74
S315000041B012680A48916910B4D46919604FF4004234
S315000041C00021DC60586059619A601A615DF8044B01
S315000041D0704700BF6401FE1F4C01FE1F00127A00EB
S315000041E0374B1B6893F8283013F030023DD0102A65
S315000041F00DD0202A3AD0DFED337A334AF0EE676AE3
S3150000420067EEA67AFCEEE77AC2ED057A7047028D74
S315000042102E4902F0030231F8121000294CD05B0639
S3150000422010B44AD5038D13F0100F0CBF03240024DD
S31500004230254A038D52F824005DF8044B07EE900AD8
S31500004240B8EE677A07EE901AB8EE676AC3F30523ED
S31500004250C7EE067A013306EE903AFAEEEF6A67EE9B
S31500004260A67AFCEEE77AC2ED057A704790F82B3015
S31500004270174A9B0932F813100029F6D0124A90F813
S315000042802B30D2ED037A03F01F03B8EE677A06EE01
S31500004290903A07EE901AF8EE666AB8EE676AF7EE9D
S315000042A0007A76EEA76AC7EE067A67EEA67AFCEE85
S315000042B0E77AC2ED057A704770470324B8E700BF76
S315000042C06401FE1F000000004C01FE1F54BD0000EB
S315000042D04CBD0000F8B50D4B1B68064693F8205000
S315000042E093F8217000200C4602F086FD96F8132400
S315000042F0E9B2BC400C4022EA010344EA030186F815
S3150000430013140020BDE8F84002F046BD6401FE1F0C
S31500004310F8B50D4B1B68064693F8225093F82370A8
S3150000432000200C4602F068FD96F88124E9B2BC40F4
S315000043300C4022EA010344EA030186F881140020B6
S31500004340BDE8F84002F028BD6401FE1F38B50546F9
S315000043500C46002002F050FD052C0AD8DFE804F0D8
S3150000436019242F033A0E95F8323023F0010385F80D
S3150000437032300020BDE8384002F00EBD95F82A30F4
S3150000438023F0010385F82A300020BDE8384002F00A
S3150000439003BD95F8363023F0010385F8363000204A
S315000043A0BDE8384002F0F8BC95F8383023F0010338
S315000043B085F838300020BDE8384002F0EDBC95F8AD
S315000043C0903423F0010385F890340020BDE838408E
S315000043D002F0E2BC95F8803423F0010385F88034BE
S315000043E00020BDE8384002F0D7BC00BF38B505460E
S315000043F00C46002002F000FD052C0AD8DFE804F088
S3150000440019242F033A0E95F8323043F0010385F84C
S3150000441032300020BDE8384002F0BEBC95F82A30A4
S3150000442043F0010385F82A300020BDE8384002F049
S31500004430B3BC95F8363043F0010385F836300020DA
S31500004440BDE8384002F0A8BC95F8383043F00103C7
S3150000445085F838300020BDE8384002F09DBC95F85C
S31500004460903443F0010385F890340020BDE83840CD
S3150000447002F092BC95F8803443F0010385F880344D
S315000044800020BDE8384002F087BC00BF03290ED0EB
S31500004490052907D009B10020704790F83C0000F0CC
S315000044A00100704790F83C00C0F34010704790F848
S315000044B03C00C0F3C000704705292ED8DFE801F0A4
S315000044C00A11181F260390F82A0000F0010080F058
S315000044D00100704790F8360000F0010080F00100FE
S315000044E0704790F8380000F0010080F00100704736
S315000044F090F8900400F0010080F00100704790F8F9
S31500004500320000F0010080F00100704790F880044E
S3150000451000F0010080F0010070470020704700BFE6
S31500004520036A90F82630704738B5054600200C46D9
S3150000453002F062FC95F8133404F0010123F0400305
S3150000454043EA811185F813140020BDE8384002F0D3
S3150000455023BC00BF38B505460020144602F04CFCCB
S3150000456095F8A22004F00F0422F00F02144385F8F8
S31500004570A2400020BDE8384002F00EBC084B1B6884
S3150000458093F8283013F0300F04D104288CBF002094
S315000045900120704705288CBF00200120704700BF0E
S315000045A06401FE1F90F8260000F00700704700BF68
S315000045B038B5054600200C4602F01EFC95F826107C
S315000045C004F0070421F007010C4385F8264000207B
S315000045D0BDE8384002F0E0BB074B1B6893F8283073
S315000045E05B0601D403207047038D13F0100F0CBF38
S315000045F003200020704700BF6401FE1F38B5044643
S3150000460000200D4602F0F8FB238D032D0CBF23F08E
S31500004610100343F0100323850020BDE8384002F064
S31500004620BBBB00BF38B5224C2DED028B236893F837
S31500004630283003F03003102B0546B0EE408A1CD01C
S31500004640202B02D0BDEC028B38BD002002F0D4FB3B
S31500004650FCEEC87A95F82B1017EE903A013B03F062
S315000046601F0221F01F03134385F82B30BDEC028B8C
S315000046700020BDE8384002F08FBB002002F0BCFBF2
S3150000468078EE087A2A8DFCEEE77A22F47C5217EE51
S31500004690903A013B03F03F0342EA03232B850020B7
S315000046A002F07AFB236893F8283003F03003C7E75B
S315000046B06401FE1F70B51E4C236893F8283003F082
S315000046C03003102B82B0054619D0202B01D002B042
S315000046D070BD184B002033F8114002F08DFB95F8A1
S315000046E02B3004F0030403F03F0343EA8413002055
S315000046F085F82B3002B0BDE8704002F04DBB0E4B82
S315000047000191002033F8116002F076FB2B8D06F044
S31500004710030623F003031E432E85002002F03CFB14
S315000047202368019993F8283003F03003CDE700BFE2
S315000047306401FE1F64BD00005CBD000038B51A4B65
S315000047401A6892F8293092F82A200546180748BFB9
S3150000475008784FF0000448BF60F30E34D80644BF13
S31500004760487860F30A24980644BF887860F30614F4
S31500004770580644BFC87860F30204D20744BF0A79DA
S3150000478062F312441B0644BF4B7963F31E748B79A4
S31500004790002063F31A6402F02FFB2C620020BDE8B0
S315000047A0384002F0F9BA00BF6401FE1F036AC3F382
S315000047B002330B70036AC3F302234B70036AC3F31D
S315000047C002138B70036A03F00703CB70036AC3F30B
S315000047D002430B71036AC3F302734B71036AC3F39B
S315000047E002638B71704700BF144B42781B6893F8C5
S315000047F0241091421ED393F8262090ED017A07EEFD
S31500004800902AF8EE677AF4EEC77AF1EE10FA11D430
S3150000481093F8253007EE903AF8EE677AB4EEE77A29
S31500004820F1EE10FA06D40078032805D0B0FA80F02D
S315000048304009704700207047012070476401FE1F41
S31500004840062921D8DFE801F0080C1014181C040012
S31500004850006AC0F302607047006AC0F30230704716
S31500004860006AC0F302207047006AC0F30210704766
S31500004870006A00F007007047006AC0F30240704704
S31500004880006AC0F3027070470020704710B50446F6
S31500004890FFF7D6FF94F82630034A03F0070352F8D1
S315000048A0233023FA00F010BD4C01FE1F024B53F8D3
S315000048B02000C840704700BF4C01FE1F30B50446BB
S315000048C083B001200D4602F097FA02A8002300F8F3
S315000048D0013D01F0BDFE94F8AA30D806FBD494F849
S315000048E0A030D906F7D494F8AA3023F0010384F84F
S315000048F0AA3094F8AA30DA06FBD494F8A030DB0686
S31500004900F7D4042D2BD094F8A02005F0030322F051
S315000049100302134384F8A03094F8AA30D806FBD4D7
S3150000492094F8A030D906F7D494F8AA30042D0CBF19
S3150000493043F0010323F0010384F8AA3094F8AA3067
S31500004940DA06FBD494F8A030DB06F7D49DF807000E
S3150000495001F092FE012002F01FFA03B030BD94F878
S31500004960A03043F0030384F8A030D5E790F8AA30CE
S31500004970DB075ABF90F8A00000F003000420704740
S3150000498010B50446002002F037FA94F8403063F080
S315000049907F0384F8403094F8403043F0010384F8F4
S315000049A040300020BDE8104002F0F6B910B50446CC
S315000049B0002002F021FA94F8403023F0010384F835
S315000049C0403094F8403003F07F0384F840300020F4
S315000049D0BDE8104002F0E0B990F84000C009704709
S315000049E090F8410000F00100704700BF38B590F81C
S315000049F0413013F0010401D1002038BD05460020E6
S31500004A0002F0FAF995F8413023F0010385F84130B8
S31500004A10002002F0C1F9204638BD00BF38B5054672
S31500004A2000200C4602F0E8F995F8301004F0010475
S31500004A3021F001010C4385F830400020BDE83840E4
S31500004A4002F0AAB910B50446002002F0D5F994F890
S31500004A50523043F0010384F852300020BDE8104084
S31500004A6002F09AB910B50446002002F0C5F994F890
S31500004A70523023F0010384F852300020BDE8104084
S31500004A8002F08AB970B5044600200D46164602F0BB
S31500004A90B3F994F83E3003F07F0384F83E3094F87F
S31500004AA03E3006F0070223F0700343EA021284F850
S31500004AB03E2094F83E1005F0070521F007010D434E
S31500004AC084F83E500020BDE8704002F065B900BF92
S31500004AD010B50446002002F08FF994F83E3063F0DA
S31500004AE07F0384F83E300020BDE8104002F054B940
S31500004AF010B50446002002F07FF994F83E3003F02A
S31500004B007F0384F83E300020BDE8104002F044B92F
S31500004B1010B50446002002F06FF994F8533043F0C4
S31500004B20010384F853300020BDE8104002F034B988
S31500004B3010B50446002002F05FF994F8533023F0D4
S31500004B40010384F853300020BDE8104002F024B978
S31500004B5038B5054600200C4602F04EF995F824308B
S31500004B6004F0070123F0700343EA011185F82410CD
S31500004B700020BDE8384002F00FB900BF124B70B4F8
S31500004B801D681A6892071BD50021104C196094F80D
S31500004B9023200138B0F1807FD2B20DD2F02607254E
S31500004BA002F0F002586084F8236099601D6084F872
S31500004BB02320012070BC70471D60084670BC7047FA
S31500004BC0012070BC704700BF10E000E000ED00E07F
S31500004BD090F8503001F00F0123F00F03194380F8CD
S31500004BE05010704790F8500000F00F00704700BF5B
S31500004BF090F8503063F07F0380F85030704700BF64
S31500004C0090F8503003F07F0380F85030704700BFB3
S31500004C1090F85000C009704790F8D13021B123F0C8
S31500004C20010380F8D130704743F0010380F8D1309A
S31500004C30704700BF90F8D13063F07F0380F8D13021
S31500004C40704700BF90F8D13003F07F0380F8D13071
S31500004C50704700BF90F8D100C009704738B50546C7
S31500004C6000200C4602F0C8F895F8A51004F00704D9
S31500004C7021F007010C4385F8A5400020BDE8384027
S31500004C8002F08AB820B1034B1B680360002070470E
S31500004C9001207047E0BD000030B52A4C87B02046A1
S31500004CA001F016FE06A8284B002503220095DB68B6
S31500004CB000F8182D02A902950395049505959847C5
S31500004CC0029860604FF6FF7329460193FFF7F4FBE5
S31500004CD028B910E0019B43B1019B013B0193606839
S31500004CE00021FFF7D3FB0028F4D0019B1BB94FF43A
S31500004CF0CD7007B030BD60680621FFF7AFFF4FF6F5
S31500004D00FF730193FFF752FA60680421FFF76EFB09
S31500004D1004E0019B43B1019B013B019360680421C0
S31500004D20FFF7CAFB0028F4D1019B002BDFD0606897
S31500004D3004210522FFF7F4FB60680021FFF7E8FA7B
S31500004D400020D6E76401FE1F10BD000070B169B1F6
S31500004D5070B5074E044670680D46FFF723FC2946DA
S31500004D6020707068FFF722FD002070BD012070479B
S31500004D706401FE1F70B582B0002940D005460028A8
S31500004D803AD0344C6068FFF7F1FD0428064633D06C
S31500004D9060686946FFF70AFD23689A680AB1032E20
S31500004DA037D0DA68F2B1022E1CD193F8292059695E
S31500004DB0160733D4D00638D496063BD450063ED4D4
S31500004DC0120603D59DF805208A422BD393F82A3084
S31500004DD0DB0703D59DF804308B4223D39DF80630BC
S31500004DE08B421FD32946012001F084FD6068FFF73E
S31500004DF0C7FD002002B070BD012002B070BD154D88
S31500004E006868FFF7EDFD0446F0B14FF4CB7002B0D1
S31500004E1070BD93F8292019691007CBD59DF80000BD
S31500004E208842C7D2052002B070BD9DF801008842B5
S31500004E30C2D2F7E79DF802008842BFD2F2E79DF89A
S31500004E4003008842BCD2EDE76868FFF7AFFD204655
S31500004E50D3E700BF6401FE1F38B5124C6068FFF748
S31500004E60BFFD78B16068FFF79DFB236893F8283093
S31500004E7013F0300F054603D05B0608D405280DD085
S31500004E80032D0BD06068FFF7B1FD002038BD6068C8
S31500004E90FFF7A2FB052DF3D10328F3D140F29710BB
S31500004EA038BD00BF6401FE1F08B5034B01465868B4
S31500004EB0FFF7B4FD002008BD6401FE1F08B5034BD3
S31500004EC05868FFF7BFFD002008BD00BF6401FE1F44
S31500004ED008B5034B5868FFF7C5FD002008BD00BFA5
S31500004EE06401FE1F08B5044B0A4601465868FFF7E1
S31500004EF0C9FD002008BD00BF6401FE1F08B5034BB5
S31500004F005868FFF7E5FD002008BD00BF6401FE1FDD
S31500004F1008B5034B5868FFF7EBFD002008BD00BF3E
S31500004F206401FE1F10B5114C2368606893F82830A1
S31500004F3013F0300F06D00521FFF7BEFA08B10020A6
S31500004F4010BD60680321FFF7B7FA0028F7D10146C4
S31500004F506068FFF7B1FA0028F1D160680121FFF718
S31500004F60ABFA80F00100C0B210BD00BF6401FE1FA5
S31500004F7038B50446FFF702FB08B9032038BD631EA7
S31500004F80012B11D9042C0FD02CB1032C03D0052CE6
S31500004F9001D0002038BD114D21466868FFF78CFA14
S31500004FA078B94FF4C87038BD0C4B21465868FFF7E6
S31500004FB083FA40F29113002814BF18464FF4C870C4
S31500004FC038BD68682146FFF761FA40F2931300285E
S31500004FD00CBF18464FF4C97038BD00BF6401FE1FF0
S31500004FE070B506464FF6FE7440F2931501E0013C9B
S31500004FF00CD03046FFF7BCFFA842F8D038B16FF4AA
S31500005000C873C318022B38BF002070BD284670BD78
S31500005010052814D070B51F4D2B6893F8282012066A
S315000050200C4612D49A68944216D95B689C4200D901
S3150000503070BD68680121BDE87040FFF73FBC154BA5
S315000050401A685268914212D97047FFF76BFFD8B9B8
S315000050502B689A689442E8D893F8283013F0300FFA
S3150000506009D168680321BDE87040FFF727BC58687E
S315000050700121FFF723BC6868064E0521FFF71CFADD
S315000050800028EED03368D0E768680421BDE8704098
S31500005090FFF714BC6401FE1FF0B583B00D4604464D
S315000050A0FFF76CFA10B9032003B0F0BD5F4E052C74
S315000050B02146706806D0FFF7FFF9D0B140F2911093
S315000050C003B0F0BDFFF7F8F910BB3DB37068FFF70A
S315000050D069FA0528F2D02846FFF786FB0028E2D0B9
S315000050E070682978FFF7E8F900286CD14FF4CA7088
S315000050F0DAE77068FFF73AFC042811D0631E012B2B
S3150000510036D9042C3AD0A4B1032C1AD00020CBE710
S315000051107068FFF765F840F29110C5E70120C3E714
S31500005120012C01D9032CE9D170680321FFF7C6FBD6
S31500005130E4E770682146FFF7A9F9C8B140F2931079
S31500005140B2E77068394F2146FFF7A0F905460028F7
S31500005150F4D13B68786893F82710FFF7BBF8294627
S315000051607868FFF7E1F9786821460522FFF7F2F93A
S3150000517070682146FFF7EAF8002095E74FF6FF73BF
S31500005180214670680193FFF797F9284B0146B0B1A5
S3150000519070680421FFF7DAF804E0019B43B1019B34
S315000051A0013B019370680421FFF786F90028F4D0CB
S315000051B0019B002B0CBF4FF4CD70002074E758689C
S315000051C0FFF7A6F8E4E721467068FFF75FF90028C5
S315000051D0B4D1336893F828305B0603D57068297814
S315000051E0FFF70CFA69787068104CFFF763FA95EDD3
S315000051F0010A7068FFF716FA7068FEF7F1FF336868
S3150000520093F82810052001F00F01FFF74FFB3368D4
S315000052105B68984288BF0021606898BF0121FFF74C
S315000052204DFB70680521FFF791F86FE76401FE1FDB
S3150000523070B582B00446FFF7A1F910B9032002B099
S3150000524070BD2C4D6868FFF7ADF984422BD0052858
S3150000525024D0012C2AD06868264E2146FFF72CF967
S31500005260D0B1022C14D0042C29D01CB1032C01D0AF
S31500005270052C11D168681F4D2146FFF707F938B98B
S3150000528040F29310DBE770682146FFF715F918B175
S3150000529068682146FFF7AAF80020D0E76868FFF79C
S315000052A09BF9A042D5D140F29110C8E76868114E2B
S315000052B0FFF792FB0028E6D040F29510BFE7706832
S315000052C02146FFF793F84FF6FF73019304E0019B25
S315000052D043B1019B013B019368680421FFF7ECF899
S315000052E00028F4D1019B002B0CBF4FF4CD70002099
S315000052F0A5E700BF6401FE1F01280FD0022801D0D8
S315000053000020704708B508460021FFF7C5FE40B1EA
S3150000531040F29113984208BF002008BD0846FFF7E7
S3150000532087BF002008BD00BF38B581B306282CD042
S3150000533005281CD0042809D000B3012832D0022841
S3150000534037D0032826D00323184638BD1C4B1A68CD
S3150000535092F82A20D407F6D50D46002401462C6083
S315000053605868FFF793FA23462860184638BD144B51
S315000053701A6892F829201506EED4E4E7104B1A684D
S3150000538092F829201207E7D4DDE70D4BE4E7012365
S31500005390184638BD0A4B1A6892F829205206DBD403
S315000053A00346D1E7064B1A6892F82920D506D3D4CE
S315000053B0C9E7034B1A6892F829209406CCD4C2E7B1
S315000053C06401FE1F38B5114D2B6893F82930DB07B1
S315000053D001D4062038BD002001F00EFD68680C4C93
S315000053E0FFF706FC01E06CB1013C6868FFF710FCB2
S315000053F00028F8D0002001F0CFFC002C0CBF1420B0
S31500005400002038BD01F0C8FC142038BD6401FE1F21
S31500005410FFFF0F0038B5114D2B6893F82930DB07D5
S3150000542001D4062038BD002001F0E6FC68680C4C6B
S31500005430FFF7E6FB01E064B1013C6868FFF7E8FBB3
S315000054400028F8D101F0A8FC002C0CBF1420002085
S3150000545038BD204601F0A0FC142038BD6401FE1FB3
S31500005460FFFF0F00F8B51B4D2B6893F82930DB07BB
S3150000547001D40620F8BD184B1E5CFF2E01D1032077
S31500005480F8BD002001F0B8FC6868144CFFF7C0FBBB
S315000054900746FFF7BFFF68683146FFF799FB01E053
S315000054A08CB1013C6868FFF79DFB8642F8D13FB995
S315000054B0002001F071FC002C0CBF14200020F8BD68
S315000054C0FFF780FFF4E7002FFAD1384601F064FCBD
S315000054D01420F8BD6401FE1FD8BD0000FFFF0F00B9
S315000054E010B5094C236893F82A309B0701D406208F
S315000054F010BD002001F080FC6068FFF79BFB0020D8
S3150000550001F04AFC002010BD6401FE1F10B5094CD5
S31500005510236893F82A309B0701D4062010BD00208B
S3150000552001F06AFC6068FFF78DFB002001F034FC97
S31500005530002010BD6401FE1F70B5124C236893F85D
S315000055402A309B0701D4062070BD032802D008B17B
S31500005550032070BD0546002001F04EFC6068FFF791
S3150000556079FB0646FFF7D2FF60682946FFF754FB32
S3150000557026B9002001F010FC002070BDFFF7B0FF37
S31500005580F7E700BF6401FE1F08B5064B1A6892F8DC
S315000055902920920701D4062008BD5868FFF7B8FAFB
S315000055A0002008BD6401FE1F08B5064B1A6892F874
S315000055B02920920701D4062008BD5868FFF7B8FADB
S315000055C0002008BD6401FE1F08B5074B1A6892F853
S315000055D02920520701D4032008BD01465868FFF769
S315000055E0B7FA002008BD00BF6401FE1F08B501F030
S315000055F0AFF807EE900AB8EE677AF7EE007A87EE14
S31500005600877ADFED097ADFED096A67EE277AC6EE5B
S31500005610A77AFCEEE77A17EE900AFFF7AFFA0028B2
S315000056200CBF1220002008BD0024744900401C460F
S3150000563008B903207047FFF7D9BF00BFF0B587B0A0
S315000056400C460546FEF79AFF10B9032007B0F0BDD9
S315000056506CB3574E326892F82930190721D527784E
S31500005660A079B842F1D861788F42EED894F803E079
S31500005670BE45EAD88142E8D323F07F0303F0FF0159
S3150000568013B163798342E0D392F82A30DB0702D55F
S3150000569023798342D9D3042D0BD1002862D005206B
S315000056A0D4E76178E0788842CFD8A079E2E7012094
S315000056B0CCE770683E4FFEF775FF854208D0002D97
S315000056C047D0032D45D0052D43D06B1E012B60D945
S315000056D07068374F6946FFF769F870680021FFF771
S315000056E0EDF80023A1798DF8083028468DF814309E
S315000056F0FFF7DCF8062103907068FFF7C7F80490FF
S3150000570002A801F035F80028A0D19DF80620A3795B
S315000057109A4235D221467868FFF710F8786829460C
S31500005720FEF746FF06217068FFF7B0F801230490E4
S3150000573002A88DF8083001F01BF80446002885D130
S3150000574001F006F81B4B0146186048BB4FF4C870C1
S315000057507CE770682946FEF799FE0028B8D140F22A
S31500005760931073E763790BB1002998D17068104FD5
S31500005770FFF732F9002892D17868FEF713FFA7E702
S3150000578078682946FEF714FF78682146FEF7D6FFAB
S31500005790C8E778682946FEF78FFE0028D6D097E737
S315000057A02846FFF735FCFFF721FF20464EE700BFEE
S315000057B06401FE1FE401FE1F002800F086802DE92B
S315000057C0F047054686B006A800232F7800F8113D5D
S315000057D004A98DF810308DF811308DF812308DF83F
S315000057E013308DF814308DF815308DF81630FFF71C
S315000057F0ADFA95F815E0EE7C297DEA7DAB7D2C7E31
S315000058008DF808E038468DF80A608DF809108DF895
S315000058100B208DF80C308DF80D40FEF7AFFE18B951
S31500005820032006B0BDE8F0872B7806AA134413F8C8
S31500005830103C012BF4D0022C54D0DFF81081D8F89C
S31500005840003093F8283013F0300F14BF06260526D3
S31500005850002440F2911905F1040A052CE1B25CD04E
S3150000586002AB185DFFF748FD08B14845D9D10134B0
